{
  "contractName": "Person",
  "abi": [
    {
      "inputs": [
        {
          "internalType": "uint256",
          "name": "_id",
          "type": "uint256"
        },
        {
          "internalType": "string",
          "name": "_name",
          "type": "string"
        }
      ],
      "payable": false,
      "stateMutability": "nonpayable",
      "type": "constructor"
    },
    {
      "constant": true,
      "inputs": [],
      "name": "id",
      "outputs": [
        {
          "internalType": "uint256",
          "name": "",
          "type": "uint256"
        }
      ],
      "payable": false,
      "stateMutability": "view",
      "type": "function"
    },
    {
      "constant": true,
      "inputs": [],
      "name": "name",
      "outputs": [
        {
          "internalType": "string",
          "name": "",
          "type": "string"
        }
      ],
      "payable": false,
      "stateMutability": "view",
      "type": "function"
    },
    {
      "constant": false,
      "inputs": [
        {
          "internalType": "string",
          "name": "_name",
          "type": "string"
        }
      ],
      "name": "setName",
      "outputs": [],
      "payable": false,
      "stateMutability": "nonpayable",
      "type": "function"
    }
  ],
  "bytecode": "0x608060405234801561001057600080fd5b5060405161050b38038061050b8339818101604052604081101561003357600080fd5b81019080805190602001909291908051604051939291908464010000000082111561005d57600080fd5b8382019150602082018581111561007357600080fd5b825186600182028301116401000000008211171561009057600080fd5b8083526020830192505050908051906020019080838360005b838110156100c45780820151818401526020810190506100a9565b50505050905090810190601f1680156100f15780820380516001836020036101000a031916815260200191505b5060405250505081600081905550806001908051906020019061011592919061011d565b5050506101c2565b828054600181600116156101000203166002900490600052602060002090601f016020900481019282601f1061015e57805160ff191683800117855561018c565b8280016001018555821561018c579182015b8281111561018b578251825591602001919060010190610170565b5b509050610199919061019d565b5090565b6101bf91905b808211156101bb5760008160009055506001016101a3565b5090565b90565b61033a806101d16000396000f3fe608060405234801561001057600080fd5b50600436106100415760003560e01c806306fdde0314610046578063af640d0f146100c9578063c47f0027146100e7575b600080fd5b61004e6101a2565b6040518080602001828103825283818151815260200191508051906020019080838360005b8381101561008e578082015181840152602081019050610073565b50505050905090810190601f1680156100bb5780820380516001836020036101000a031916815260200191505b509250505060405180910390f35b6100d1610240565b6040518082815260200191505060405180910390f35b6101a0600480360360208110156100fd57600080fd5b810190808035906020019064010000000081111561011a57600080fd5b82018360208201111561012c57600080fd5b8035906020019184600183028401116401000000008311171561014e57600080fd5b91908080601f016020809104026020016040519081016040528093929190818152602001838380828437600081840152601f19601f820116905080830192505050505050509192919290505050610246565b005b60018054600181600116156101000203166002900480601f0160208091040260200160405190810160405280929190818152602001828054600181600116156101000203166002900480156102385780601f1061020d57610100808354040283529160200191610238565b820191906000526020600020905b81548152906001019060200180831161021b57829003601f168201915b505050505081565b60005481565b806001908051906020019061025c929190610260565b5050565b828054600181600116156101000203166002900490600052602060002090601f016020900481019282601f106102a157805160ff19168380011785556102cf565b828001600101855582156102cf579182015b828111156102ce5782518255916020019190600101906102b3565b5b5090506102dc91906102e0565b5090565b61030291905b808211156102fe5760008160009055506001016102e6565b5090565b9056fea265627a7a723158202c3ef560c692e1207911fb980c6c2b281cfbc173bab95bef75568d2193a917cb64736f6c63430005100032",
  "source": "// pragma solidity ^0.5.0;\r\npragma solidity >=0.4.21 <0.7.0;\r\ncontract Person {\r\n    // data type public private internal constant\r\n    // struct User{\r\n    //     string person_name;\r\n    //     string password1;\r\n    // }\r\n    uint256 public id;\r\n    string public name;\r\n    mapping(address => string) nickname;\r\n    constructor(uint256 _id,string memory _name) public {\r\n        id = _id;\r\n        name = _name;\r\n    }\r\n    // calldata external\r\n    function setName(string memory _name) public {\r\n        name = _name;\r\n    }\r\n    // function setSingleStatus(bool _single) public {\r\n    //     single = _single;\r\n    // }\r\n    // function setTelno(uint256 _telno) public {\r\n    //     telno = _telno;\r\n    // }\r\n    // function getPassword() public view returns (string memory){\r\n    //     return password;\r\n    // }\r\n    // function getSender() public view returns(address) {\r\n    //     return msg.sender;\r\n    // }\r\n    // function getValue() public payable returns (uint256){\r\n    //     return msg.value;\r\n    // }\r\n    // function setNickname(string memory _nickname) public{\r\n    //     nickname[msg.sender] = _nickname;\r\n    // }\r\n    // function getNickname() public view returns (string memory){\r\n    //     return nickname[msg.sender];\r\n    // }\r\n    \r\n}",
  "sourcePath": "C:\\Users\\Arima\\Desktop\\test2\\contracts\\test.sol",
  "compiler": {
    "name": "solc",
    "version": "0.5.16+commit.9c3226ce.Emscripten.clang"
  },
  "schemaVersion": "3.2.0",
  "updatedAt": "2020-06-02T10:11:42.717Z",
  "networkType": "ethereum",
  "devdoc": {
    "methods": {}
  },
  "userdoc": {
    "methods": {}
  }
}